{
  "_format": "hh-sol-artifact-1",
  "contractName": "AaveGovernanceV2",
  "sourceName": "contracts/governance/AaveGovernanceV2.sol",
  "abi": [
    {
      "inputs": [
        {
          "internalType": "address",
          "name": "governanceStrategy",
          "type": "address"
        },
        {
          "internalType": "uint256",
          "name": "votingDelay",
          "type": "uint256"
        },
        {
          "internalType": "address",
          "name": "guardian",
          "type": "address"
        },
        {
          "internalType": "address[]",
          "name": "executors",
          "type": "address[]"
        }
      ],
      "stateMutability": "nonpayable",
      "type": "constructor"
    },
    {
      "anonymous": false,
      "inputs": [
        {
          "indexed": false,
          "internalType": "address",
          "name": "executor",
          "type": "address"
        }
      ],
      "name": "ExecutorAuthorized",
      "type": "event"
    },
    {
      "anonymous": false,
      "inputs": [
        {
          "indexed": false,
          "internalType": "address",
          "name": "executor",
          "type": "address"
        }
      ],
      "name": "ExecutorUnauthorized",
      "type": "event"
    },
    {
      "anonymous": false,
      "inputs": [
        {
          "indexed": true,
          "internalType": "address",
          "name": "newStrategy",
          "type": "address"
        },
        {
          "indexed": true,
          "internalType": "address",
          "name": "initiatorChange",
          "type": "address"
        }
      ],
      "name": "GovernanceStrategyChanged",
      "type": "event"
    },
    {
      "anonymous": false,
      "inputs": [
        {
          "indexed": true,
          "internalType": "address",
          "name": "previousOwner",
          "type": "address"
        },
        {
          "indexed": true,
          "internalType": "address",
          "name": "newOwner",
          "type": "address"
        }
      ],
      "name": "OwnershipTransferred",
      "type": "event"
    },
    {
      "anonymous": false,
      "inputs": [
        {
          "indexed": false,
          "internalType": "uint256",
          "name": "id",
          "type": "uint256"
        }
      ],
      "name": "ProposalCanceled",
      "type": "event"
    },
    {
      "anonymous": false,
      "inputs": [
        {
          "indexed": false,
          "internalType": "uint256",
          "name": "id",
          "type": "uint256"
        },
        {
          "indexed": true,
          "internalType": "address",
          "name": "creator",
          "type": "address"
        },
        {
          "indexed": true,
          "internalType": "contract IExecutorWithTimelock",
          "name": "executor",
          "type": "address"
        },
        {
          "indexed": false,
          "internalType": "address[]",
          "name": "targets",
          "type": "address[]"
        },
        {
          "indexed": false,
          "internalType": "uint256[]",
          "name": "values",
          "type": "uint256[]"
        },
        {
          "indexed": false,
          "internalType": "string[]",
          "name": "signatures",
          "type": "string[]"
        },
        {
          "indexed": false,
          "internalType": "bytes[]",
          "name": "calldatas",
          "type": "bytes[]"
        },
        {
          "indexed": false,
          "internalType": "bool[]",
          "name": "withDelegatecalls",
          "type": "bool[]"
        },
        {
          "indexed": false,
          "internalType": "uint256",
          "name": "startBlock",
          "type": "uint256"
        },
        {
          "indexed": false,
          "internalType": "uint256",
          "name": "endBlock",
          "type": "uint256"
        },
        {
          "indexed": false,
          "internalType": "address",
          "name": "strategy",
          "type": "address"
        },
        {
          "indexed": false,
          "internalType": "bytes32",
          "name": "ipfsHash",
          "type": "bytes32"
        }
      ],
      "name": "ProposalCreated",
      "type": "event"
    },
    {
      "anonymous": false,
      "inputs": [
        {
          "indexed": false,
          "internalType": "uint256",
          "name": "id",
          "type": "uint256"
        },
        {
          "indexed": true,
          "internalType": "address",
          "name": "initiatorExecution",
          "type": "address"
        }
      ],
      "name": "ProposalExecuted",
      "type": "event"
    },
    {
      "anonymous": false,
      "inputs": [
        {
          "indexed": false,
          "internalType": "uint256",
          "name": "id",
          "type": "uint256"
        },
        {
          "indexed": false,
          "internalType": "uint256",
          "name": "executionTime",
          "type": "uint256"
        },
        {
          "indexed": true,
          "internalType": "address",
          "name": "initiatorQueueing",
          "type": "address"
        }
      ],
      "name": "ProposalQueued",
      "type": "event"
    },
    {
      "anonymous": false,
      "inputs": [
        {
          "indexed": false,
          "internalType": "uint256",
          "name": "id",
          "type": "uint256"
        },
        {
          "indexed": true,
          "internalType": "address",
          "name": "voter",
          "type": "address"
        },
        {
          "indexed": false,
          "internalType": "bool",
          "name": "support",
          "type": "bool"
        },
        {
          "indexed": false,
          "internalType": "uint256",
          "name": "votingPower",
          "type": "uint256"
        }
      ],
      "name": "VoteEmitted",
      "type": "event"
    },
    {
      "anonymous": false,
      "inputs": [
        {
          "indexed": false,
          "internalType": "uint256",
          "name": "newVotingDelay",
          "type": "uint256"
        },
        {
          "indexed": true,
          "internalType": "address",
          "name": "initiatorChange",
          "type": "address"
        }
      ],
      "name": "VotingDelayChanged",
      "type": "event"
    },
    {
      "inputs": [],
      "name": "DOMAIN_TYPEHASH",
      "outputs": [
        {
          "internalType": "bytes32",
          "name": "",
          "type": "bytes32"
        }
      ],
      "stateMutability": "view",
      "type": "function"
    },
    {
      "inputs": [],
      "name": "NAME",
      "outputs": [
        {
          "internalType": "string",
          "name": "",
          "type": "string"
        }
      ],
      "stateMutability": "view",
      "type": "function"
    },
    {
      "inputs": [],
      "name": "VOTE_EMITTED_TYPEHASH",
      "outputs": [
        {
          "internalType": "bytes32",
          "name": "",
          "type": "bytes32"
        }
      ],
      "stateMutability": "view",
      "type": "function"
    },
    {
      "inputs": [],
      "name": "__abdicate",
      "outputs": [],
      "stateMutability": "nonpayable",
      "type": "function"
    },
    {
      "inputs": [
        {
          "internalType": "address[]",
          "name": "executors",
          "type": "address[]"
        }
      ],
      "name": "authorizeExecutors",
      "outputs": [],
      "stateMutability": "nonpayable",
      "type": "function"
    },
    {
      "inputs": [
        {
          "internalType": "uint256",
          "name": "proposalId",
          "type": "uint256"
        }
      ],
      "name": "cancel",
      "outputs": [],
      "stateMutability": "nonpayable",
      "type": "function"
    },
    {
      "inputs": [
        {
          "internalType": "contract IExecutorWithTimelock",
          "name": "executor",
          "type": "address"
        },
        {
          "internalType": "address[]",
          "name": "targets",
          "type": "address[]"
        },
        {
          "internalType": "uint256[]",
          "name": "values",
          "type": "uint256[]"
        },
        {
          "internalType": "string[]",
          "name": "signatures",
          "type": "string[]"
        },
        {
          "internalType": "bytes[]",
          "name": "calldatas",
          "type": "bytes[]"
        },
        {
          "internalType": "bool[]",
          "name": "withDelegatecalls",
          "type": "bool[]"
        },
        {
          "internalType": "bytes32",
          "name": "ipfsHash",
          "type": "bytes32"
        }
      ],
      "name": "create",
      "outputs": [
        {
          "internalType": "uint256",
          "name": "",
          "type": "uint256"
        }
      ],
      "stateMutability": "nonpayable",
      "type": "function"
    },
    {
      "inputs": [
        {
          "internalType": "uint256",
          "name": "proposalId",
          "type": "uint256"
        }
      ],
      "name": "execute",
      "outputs": [],
      "stateMutability": "payable",
      "type": "function"
    },
    {
      "inputs": [],
      "name": "getGovernanceStrategy",
      "outputs": [
        {
          "internalType": "address",
          "name": "",
          "type": "address"
        }
      ],
      "stateMutability": "view",
      "type": "function"
    },
    {
      "inputs": [],
      "name": "getGuardian",
      "outputs": [
        {
          "internalType": "address",
          "name": "",
          "type": "address"
        }
      ],
      "stateMutability": "view",
      "type": "function"
    },
    {
      "inputs": [
        {
          "internalType": "uint256",
          "name": "proposalId",
          "type": "uint256"
        }
      ],
      "name": "getProposalById",
      "outputs": [
        {
          "components": [
            {
              "internalType": "uint256",
              "name": "id",
              "type": "uint256"
            },
            {
              "internalType": "address",
              "name": "creator",
              "type": "address"
            },
            {
              "internalType": "contract IExecutorWithTimelock",
              "name": "executor",
              "type": "address"
            },
            {
              "internalType": "address[]",
              "name": "targets",
              "type": "address[]"
            },
            {
              "internalType": "uint256[]",
              "name": "values",
              "type": "uint256[]"
            },
            {
              "internalType": "string[]",
              "name": "signatures",
              "type": "string[]"
            },
            {
              "internalType": "bytes[]",
              "name": "calldatas",
              "type": "bytes[]"
            },
            {
              "internalType": "bool[]",
              "name": "withDelegatecalls",
              "type": "bool[]"
            },
            {
              "internalType": "uint256",
              "name": "startBlock",
              "type": "uint256"
            },
            {
              "internalType": "uint256",
              "name": "endBlock",
              "type": "uint256"
            },
            {
              "internalType": "uint256",
              "name": "executionTime",
              "type": "uint256"
            },
            {
              "internalType": "uint256",
              "name": "forVotes",
              "type": "uint256"
            },
            {
              "internalType": "uint256",
              "name": "againstVotes",
              "type": "uint256"
            },
            {
              "internalType": "bool",
              "name": "executed",
              "type": "bool"
            },
            {
              "internalType": "bool",
              "name": "canceled",
              "type": "bool"
            },
            {
              "internalType": "address",
              "name": "strategy",
              "type": "address"
            },
            {
              "internalType": "bytes32",
              "name": "ipfsHash",
              "type": "bytes32"
            }
          ],
          "internalType": "struct IAaveGovernanceV2.ProposalWithoutVotes",
          "name": "",
          "type": "tuple"
        }
      ],
      "stateMutability": "view",
      "type": "function"
    },
    {
      "inputs": [
        {
          "internalType": "uint256",
          "name": "proposalId",
          "type": "uint256"
        }
      ],
      "name": "getProposalState",
      "outputs": [
        {
          "internalType": "enum IAaveGovernanceV2.ProposalState",
          "name": "",
          "type": "uint8"
        }
      ],
      "stateMutability": "view",
      "type": "function"
    },
    {
      "inputs": [],
      "name": "getProposalsCount",
      "outputs": [
        {
          "internalType": "uint256",
          "name": "",
          "type": "uint256"
        }
      ],
      "stateMutability": "view",
      "type": "function"
    },
    {
      "inputs": [
        {
          "internalType": "uint256",
          "name": "proposalId",
          "type": "uint256"
        },
        {
          "internalType": "address",
          "name": "voter",
          "type": "address"
        }
      ],
      "name": "getVoteOnProposal",
      "outputs": [
        {
          "components": [
            {
              "internalType": "bool",
              "name": "support",
              "type": "bool"
            },
            {
              "internalType": "uint248",
              "name": "votingPower",
              "type": "uint248"
            }
          ],
          "internalType": "struct IAaveGovernanceV2.Vote",
          "name": "",
          "type": "tuple"
        }
      ],
      "stateMutability": "view",
      "type": "function"
    },
    {
      "inputs": [],
      "name": "getVotingDelay",
      "outputs": [
        {
          "internalType": "uint256",
          "name": "",
          "type": "uint256"
        }
      ],
      "stateMutability": "view",
      "type": "function"
    },
    {
      "inputs": [
        {
          "internalType": "address",
          "name": "executor",
          "type": "address"
        }
      ],
      "name": "isExecutorAuthorized",
      "outputs": [
        {
          "internalType": "bool",
          "name": "",
          "type": "bool"
        }
      ],
      "stateMutability": "view",
      "type": "function"
    },
    {
      "inputs": [],
      "name": "owner",
      "outputs": [
        {
          "internalType": "address",
          "name": "",
          "type": "address"
        }
      ],
      "stateMutability": "view",
      "type": "function"
    },
    {
      "inputs": [
        {
          "internalType": "uint256",
          "name": "proposalId",
          "type": "uint256"
        }
      ],
      "name": "queue",
      "outputs": [],
      "stateMutability": "nonpayable",
      "type": "function"
    },
    {
      "inputs": [],
      "name": "renounceOwnership",
      "outputs": [],
      "stateMutability": "nonpayable",
      "type": "function"
    },
    {
      "inputs": [
        {
          "internalType": "address",
          "name": "governanceStrategy",
          "type": "address"
        }
      ],
      "name": "setGovernanceStrategy",
      "outputs": [],
      "stateMutability": "nonpayable",
      "type": "function"
    },
    {
      "inputs": [
        {
          "internalType": "uint256",
          "name": "votingDelay",
          "type": "uint256"
        }
      ],
      "name": "setVotingDelay",
      "outputs": [],
      "stateMutability": "nonpayable",
      "type": "function"
    },
    {
      "inputs": [
        {
          "internalType": "uint256",
          "name": "proposalId",
          "type": "uint256"
        },
        {
          "internalType": "bool",
          "name": "support",
          "type": "bool"
        }
      ],
      "name": "submitVote",
      "outputs": [],
      "stateMutability": "nonpayable",
      "type": "function"
    },
    {
      "inputs": [
        {
          "internalType": "uint256",
          "name": "proposalId",
          "type": "uint256"
        },
        {
          "internalType": "bool",
          "name": "support",
          "type": "bool"
        },
        {
          "internalType": "uint8",
          "name": "v",
          "type": "uint8"
        },
        {
          "internalType": "bytes32",
          "name": "r",
          "type": "bytes32"
        },
        {
          "internalType": "bytes32",
          "name": "s",
          "type": "bytes32"
        }
      ],
      "name": "submitVoteBySignature",
      "outputs": [],
      "stateMutability": "nonpayable",
      "type": "function"
    },
    {
      "inputs": [
        {
          "internalType": "address",
          "name": "newOwner",
          "type": "address"
        }
      ],
      "name": "transferOwnership",
      "outputs": [],
      "stateMutability": "nonpayable",
      "type": "function"
    },
    {
      "inputs": [
        {
          "internalType": "address[]",
          "name": "executors",
          "type": "address[]"
        }
      ],
      "name": "unauthorizeExecutors",
      "outputs": [],
      "stateMutability": "nonpayable",
      "type": "function"
    }
  ],
  "bytecode": "0x60806040523480156200001157600080fd5b50604051620038e5380380620038e58339810160408190526200003491620003cb565b600062000040620000d0565b600080546001600160a01b0319166001600160a01b0383169081178255604051929350917f8be0079c531659141344cd1fd0a4f28419497f9722a3daafe3b4186f6b6457e0908290a3506200009584620000d4565b620000a0836200025e565b600680546001600160a01b0319166001600160a01b038416179055620000c681620002a2565b5050505062000531565b3390565b60405163f6b5020360e01b81526000906001600160a01b0383169063f6b50203906200010590439060040162000504565b60206040518083038186803b1580156200011e57600080fd5b505afa15801562000133573d6000803e3d6000fd5b505050506040513d601f19601f82011682018060405250810190620001599190620004ad565b118015620001e95750604051637a71f9d760e01b81526000906001600160a01b03831690637a71f9d7906200019390439060040162000504565b60206040518083038186803b158015620001ac57600080fd5b505afa158015620001c1573d6000803e3d6000fd5b505050506040513d601f19601f82011682018060405250810190620001e79190620004ad565b115b620002115760405162461bcd60e51b81526004016200020890620004da565b60405180910390fd5b600180546001600160a01b0319166001600160a01b0383169081179091556040513391907f9e8e9f668db69a2cefb172dabe284d0d3aea2b7ee64212a205bd033bd03a3d5590600090a350565b600281905560405133907fc46fc23e244f0720a98ddbac6efb5bb40d212cf15e6478fc4b3017648715289d906200029790849062000504565b60405180910390a250565b620002ac620000d0565b6000546001600160a01b039081169116146200030f576040805162461bcd60e51b815260206004820181905260248201527f4f776e61626c653a2063616c6c6572206973206e6f7420746865206f776e6572604482015290519081900360640190fd5b60005b81518110156200034a57620003418282815181106200032d57fe5b60200260200101516200034e60201b60201c565b60010162000312565b5050565b6001600160a01b03811660009081526005602052604090819020805460ff19166001179055517f52762435f58790076157ea2a4914a5a4d0aa0eb421588891377692f7fd3bc08290620003a3908390620004c6565b60405180910390a150565b80516001600160a01b0381168114620003c657600080fd5b919050565b60008060008060808587031215620003e1578384fd5b620003ec85620003ae565b935060208086015193506200040460408701620003ae565b60608701519093506001600160401b038082111562000421578384fd5b818801915088601f83011262000435578384fd5b8151818111156200044257fe5b8381029150620004548483016200050d565b8181528481019084860184860187018d10156200046f578788fd5b8795505b838610156200049c576200048781620003ae565b83526001959095019491860191860162000473565b50989b979a50959850505050505050565b600060208284031215620004bf578081fd5b5051919050565b6001600160a01b0391909116815260200190565b60208082526010908201526f494e56414c49445f535452415445475960801b604082015260600190565b90815260200190565b6040518181016001600160401b03811182821017156200052957fe5b604052919050565b6133a480620005416000396000f3fe6080604052600436106101665760003560e01c8063760fbc13116100d1578063a3f4df7e1161008a578063ddf0b00911610064578063ddf0b00914610403578063f2fde38b14610423578063f8741a9c14610443578063fe0d94c11461046357610166565b8063a3f4df7e146103ac578063a75b87d2146103ce578063af1e0bd3146103e357610166565b8063760fbc131461030b5780638da5cb5b146103205780639080936f1461033557806398e527d3146103625780639aad6f6a14610377578063a2b170b01461039757610166565b80634185ff83116101235780634185ff831461023c578063548b514e14610269578063612c56fa1461029657806364c786d9146102b657806370b0f660146102d6578063715018a6146102f657610166565b806306be3e8e1461016b5780631a1caf7f1461019657806320606b70146101b857806334b18c26146101da5780633656de21146101ef57806340e58ee51461021c575b600080fd5b34801561017757600080fd5b50610180610476565b60405161018d9190612be8565b60405180910390f35b3480156101a257600080fd5b506101b66101b136600461278c565b610485565b005b3480156101c457600080fd5b506101cd610511565b60405161018d9190612cad565b3480156101e657600080fd5b506101cd610535565b3480156101fb57600080fd5b5061020f61020a366004612954565b610559565b60405161018d9190613026565b34801561022857600080fd5b506101b6610237366004612954565b61090a565b34801561024857600080fd5b5061025c61025736600461296c565b610be5565b60405161018d9190613180565b34801561027557600080fd5b50610289610284366004612770565b610c3e565b60405161018d9190612ca2565b3480156102a257600080fd5b506101b66102b136600461299b565b610c5c565b3480156102c257600080fd5b506101b66102d136600461278c565b610c67565b3480156102e257600080fd5b506101b66102f1366004612954565b610cef565b34801561030257600080fd5b506101b6610d53565b34801561031757600080fd5b506101b6610df5565b34801561032c57600080fd5b50610180610e31565b34801561034157600080fd5b50610355610350366004612954565b610e40565b60405161018d9190612d34565b34801561036e57600080fd5b506101cd611011565b34801561038357600080fd5b506101b6610392366004612770565b611017565b3480156103a357600080fd5b506101cd611078565b3480156103b857600080fd5b506103c161107e565b60405161018d9190612d48565b3480156103da57600080fd5b506101806110ac565b3480156103ef57600080fd5b506101b66103fe3660046129bf565b6110bb565b34801561040f57600080fd5b506101b661041e366004612954565b61125d565b34801561042f57600080fd5b506101b661043e366004612770565b611559565b34801561044f57600080fd5b506101cd61045e36600461286e565b611651565b6101b6610471366004612954565b6119da565b6001546001600160a01b031690565b61048d611bd9565b6000546001600160a01b039081169116146104dd576040805162461bcd60e51b8152602060048201819052602482015260008051602061334f833981519152604482015290519081900360640190fd5b60005b815181101561050d576105058282815181106104f857fe5b6020026020010151611bdd565b6001016104e0565b5050565b7f8cad95687ba82c2ce50e74f7b754645e5117c3a5bec8151c0726d5857980a86681565b7f4e031542a9553ed1c4e810c54674ab4b984243e335b246aa3de73663bf4c11ee81565b6105616121b8565b60008281526004602052604090206105776121b8565b60408051610220810182528354815260018401546001600160a01b0390811660208084019190915260028601549091168284015260038501805484518184028101840190955280855292936060850193909283018282801561060257602002820191906000526020600020905b81546001600160a01b031681526001909101906020018083116105e4575b505050505081526020018360040180548060200260200160405190810160405280929190818152602001828054801561065a57602002820191906000526020600020905b815481526020019060010190808311610646575b5050505050815260200183600501805480602002602001604051908101604052809291908181526020016000905b828210156107335760008481526020908190208301805460408051601f600260001961010060018716150201909416939093049283018590048502810185019091528181529283018282801561071f5780601f106106f45761010080835404028352916020019161071f565b820191906000526020600020905b81548152906001019060200180831161070257829003601f168201915b505050505081526020019060010190610688565b50505050815260200183600601805480602002602001604051908101604052809291908181526020016000905b8282101561080b5760008481526020908190208301805460408051601f60026000196101006001871615020190941693909304928301859004850281018501909152818152928301828280156107f75780601f106107cc576101008083540402835291602001916107f7565b820191906000526020600020905b8154815290600101906020018083116107da57829003601f168201915b505050505081526020019060010190610760565b5050505081526020018360070180548060200260200160405190810160405280929190818152602001828054801561088257602002820191906000526020600020906000905b825461010083900a900460ff1615158152602060019283018181049485019490930390920291018084116108515790505b50505091835250506008840154602082015260098401546040820152600a8401546060820152600b8401546080820152600c84015460a0820152600d84015460ff808216151560c0840152610100808304909116151560e0840152620100009091046001600160a01b031690820152600e90930154610120909301929092525090505b919050565b600061091582610e40565b9050600781600781111561092557fe5b1415801561093f5750600181600781111561093c57fe5b14155b80156109575750600681600781111561095457fe5b14155b61097c5760405162461bcd60e51b815260040161097390612f9c565b60405180910390fd5b60008281526004602052604090206006546001600160a01b0316331480610a2f5750600281015460018201546040516331a7bc4160e01b81526001600160a01b03928316926331a7bc41926109df92309290911690436000190190600401612d10565b60206040518083038186803b1580156109f757600080fd5b505afa158015610a0b573d6000803e3d6000fd5b505050506040513d601f19601f82011682018060405250810190610a2f91906127c7565b610a4b5760405162461bcd60e51b815260040161097390612f67565b600d8101805461ff00191661010017905560005b6003820154811015610ba85760028201546003830180546001600160a01b0390921691631dc40b51919084908110610a9357fe5b6000918252602090912001546004850180546001600160a01b039092169185908110610abb57fe5b9060005260206000200154856005018581548110610ad557fe5b90600052602060002001866006018681548110610aee57fe5b9060005260206000200187600a0154886007018881548110610b0c57fe5b90600052602060002090602091828204019190069054906101000a900460ff166040518763ffffffff1660e01b8152600401610b4d96959493929190612c69565b602060405180830381600087803b158015610b6757600080fd5b505af1158015610b7b573d6000803e3d6000fd5b505050506040513d601f19601f82011682018060405250810190610b9f91906127e3565b50600101610a5f565b507f789cf55be980739dad1d0699b93b58e806b51c9d96619bfa8fe0a28abaa7b30c83604051610bd89190612cad565b60405180910390a1505050565b610bed61225e565b5060008281526004602090815260408083206001600160a01b0385168452600f0182529182902082518084019093525460ff8116151583526001600160f81b03610100909104169082015292915050565b6001600160a01b031660009081526005602052604090205460ff1690565b61050d338383611c38565b610c6f611bd9565b6000546001600160a01b03908116911614610cbf576040805162461bcd60e51b8152602060048201819052602482015260008051602061334f833981519152604482015290519081900360640190fd5b60005b815181101561050d57610ce7828281518110610cda57fe5b6020026020010151611df2565b600101610cc2565b610cf7611bd9565b6000546001600160a01b03908116911614610d47576040805162461bcd60e51b8152602060048201819052602482015260008051602061334f833981519152604482015290519081900360640190fd5b610d5081611e45565b50565b610d5b611bd9565b6000546001600160a01b03908116911614610dab576040805162461bcd60e51b8152602060048201819052602482015260008051602061334f833981519152604482015290519081900360640190fd5b600080546040516001600160a01b03909116907f8be0079c531659141344cd1fd0a4f28419497f9722a3daafe3b4186f6b6457e0908390a3600080546001600160a01b0319169055565b6006546001600160a01b03163314610e1f5760405162461bcd60e51b815260040161097390612f06565b600680546001600160a01b0319169055565b6000546001600160a01b031690565b6000816003541015610e645760405162461bcd60e51b815260040161097390612fca565b6000828152600460205260409020600d810154610100900460ff1615610e8e576001915050610905565b80600801544311610ea3576000915050610905565b80600901544311610eb8576002915050610905565b60028101546040516306fbb3ab60e01b81526001600160a01b03909116906306fbb3ab90610eec9030908790600401612bfc565b60206040518083038186803b158015610f0457600080fd5b505afa158015610f18573d6000803e3d6000fd5b505050506040513d601f19601f82011682018060405250810190610f3c91906127c7565b610f4a576003915050610905565b600a810154610f5d576004915050610905565b600d81015460ff1615610f74576007915050610905565b600281015460405163f670a5f960e01b81526001600160a01b039091169063f670a5f990610fa89030908790600401612bfc565b60206040518083038186803b158015610fc057600080fd5b505afa158015610fd4573d6000803e3d6000fd5b505050506040513d601f19601f82011682018060405250810190610ff891906127c7565b15611007576006915050610905565b6005915050610905565b60035490565b61101f611bd9565b6000546001600160a01b0390811691161461106f576040805162461bcd60e51b8152602060048201819052602482015260008051602061334f833981519152604482015290519081900360640190fd5b610d5081611e87565b60025490565b6040518060400160405280601281526020017120b0bb329023b7bb32b93730b731b2903b1960711b81525081565b6006546001600160a01b031690565b60408051808201909152601281527120b0bb329023b7bb32b93730b731b2903b1960711b60209091015260007f8cad95687ba82c2ce50e74f7b754645e5117c3a5bec8151c0726d5857980a8667f4cc6f35bf1a450a8f51b0719ea5910c789b7b914b5c4f0451867c8a5475a4982611131611ff8565b306040516020016111459493929190612cb6565b604051602081830303815290604052805190602001207f4e031542a9553ed1c4e810c54674ab4b984243e335b246aa3de73663bf4c11ee878760405160200161119093929190612cda565b604051602081830303815290604052805190602001206040516020016111b7929190612bcd565b6040516020818303038152906040528051906020012090506000600182868686604051600081526020016040526040516111f49493929190612cf2565b6020604051602081039080840390855afa158015611216573d6000803e3d6000fd5b5050604051601f1901519150506001600160a01b0381166112495760405162461bcd60e51b815260040161097390612e4a565b611254818888611c38565b50505050505050565b600461126882610e40565b600781111561127357fe5b146112905760405162461bcd60e51b815260040161097390612db9565b60008181526004602081815260408084206002810154825163675e4d4160e11b81529251919594611327946001600160a01b039092169363cebc9a829381830193929091829003018186803b1580156112e857600080fd5b505afa1580156112fc573d6000803e3d6000fd5b505050506040513d601f19601f8201168201806040525081019061132091906127e3565b4290611ffc565b905060005b6003830154811015611510576002830154600384018054611508926001600160a01b031691908490811061135c57fe5b6000918252602090912001546004860180546001600160a01b03909216918590811061138457fe5b906000526020600020015486600501858154811061139e57fe5b600091825260209182902001805460408051601f600260001961010060018716150201909416939093049283018590048502810185019091528181529283018282801561142c5780601f106114015761010080835404028352916020019161142c565b820191906000526020600020905b81548152906001019060200180831161140f57829003601f168201915b505050505087600601868154811061144057fe5b600091825260209182902001805460408051601f60026000196101006001871615020190941693909304928301859004850281018501909152818152928301828280156114ce5780601f106114a3576101008083540402835291602001916114ce565b820191906000526020600020905b8154815290600101906020018083116114b157829003601f168201915b5050505050878960070188815481106114e357fe5b90600052602060002090602091828204019190069054906101000a900460ff1661205d565b60010161132c565b50600a820181905560405133907f11a0b38e70585e4b09b794bd1d9f9b1a51a802eb8ee2101eeee178d0349e73fe9061154c9086908590613257565b60405180910390a2505050565b611561611bd9565b6000546001600160a01b039081169116146115b1576040805162461bcd60e51b8152602060048201819052602482015260008051602061334f833981519152604482015290519081900360640190fd5b6001600160a01b0381166115f65760405162461bcd60e51b81526004018080602001828103825260268152602001806133296026913960400191505060405180910390fd5b600080546040516001600160a01b03808516939216917f8be0079c531659141344cd1fd0a4f28419497f9722a3daafe3b4186f6b6457e091a3600080546001600160a01b0319166001600160a01b0392909216919091179055565b60008651600014156116755760405162461bcd60e51b815260040161097390612e1b565b85518751148015611687575084518751145b8015611694575083518751145b80156116a1575082518751145b6116bd5760405162461bcd60e51b815260040161097390612f30565b6116c688610c3e565b6116e25760405162461bcd60e51b815260040161097390612ecf565b604051631a1b205360e31b81526001600160a01b0389169063d0d90298906117169030903390600019430190600401612d10565b60206040518083038186803b15801561172e57600080fd5b505afa158015611742573d6000803e3d6000fd5b505050506040513d601f19601f8201168201806040525081019061176691906127c7565b6117825760405162461bcd60e51b815260040161097390612d5b565b61178a612275565b600254611798904390611ffc565b81600001818152505061181d896001600160a01b031663a438d2086040518163ffffffff1660e01b815260040160206040518083038186803b1580156117dd57600080fd5b505afa1580156117f1573d6000803e3d6000fd5b505050506040513d601f19601f8201168201806040525081019061181591906127e3565b825190611ffc565b602082810191909152600380546040808501828152600092835260048552912090518155600181018054336001600160a01b0319918216179091556002820180549091166001600160a01b038e161790558a51909261188292840191908c0190612296565b50875161189890600483019060208b01906122fb565b5086516118ae90600583019060208a0190612336565b5085516118c4906006830190602089019061238f565b5084516118da90600783019060208801906123e8565b508160000151816008018190555081602001518160090181905550600160009054906101000a90046001600160a01b031681600d0160026101000a8154816001600160a01b0302191690836001600160a01b031602179055508381600e0181905550600360008154809291906001019190505550896001600160a01b0316336001600160a01b03167fd272d67d2c8c66de43c1d2515abb064978a5020c173e15903b6a2ab3bf7440ec84604001518c8c8c8c8c8a600001518b60200151600160009054906101000a90046001600160a01b03168f6040516119c49a999897969594939291906131a2565b60405180910390a3549998505050505050505050565b60056119e582610e40565b60078111156119f057fe5b14611a0d5760405162461bcd60e51b815260040161097390612ff7565b6000818152600460205260408120600d8101805460ff19166001179055905b6003820154811015611b935760028201546004830180546001600160a01b0390921691638902ab65919084908110611a6057fe5b9060005260206000200154846003018481548110611a7a57fe5b6000918252602090912001546004860180546001600160a01b039092169186908110611aa257fe5b9060005260206000200154866005018681548110611abc57fe5b90600052602060002001876006018781548110611ad557fe5b9060005260206000200188600a0154896007018981548110611af357fe5b90600052602060002090602091828204019190069054906101000a900460ff166040518863ffffffff1660e01b8152600401611b3496959493929190612c69565b6000604051808303818588803b158015611b4d57600080fd5b505af1158015611b61573d6000803e3d6000fd5b50505050506040513d6000823e601f3d908101601f19168201604052611b8a91908101906127fb565b50600101611a2c565b50336001600160a01b03167f9c85b616f29fca57a17eafe71cf9ff82ffef41766e2cf01ea7f8f7878dd3ec2483604051611bcd9190612cad565b60405180910390a25050565b3390565b6001600160a01b03811660009081526005602052604090819020805460ff19169055517f5e8105a2af24345971359d2289f43efa80d093f4a7123561b8d63836b98724f490611c2d908390612be8565b60405180910390a150565b6002611c4383610e40565b6007811115611c4e57fe5b14611c6b5760405162461bcd60e51b815260040161097390612d92565b60008281526004602090815260408083206001600160a01b0387168452600f8101909252909120805461010090046001600160f81b031615611cbf5760405162461bcd60e51b815260040161097390612e75565b600d820154600883015460405163eaeded5f60e01b81526000926201000090046001600160a01b03169163eaeded5f91611cfd918a91600401612bfc565b60206040518083038186803b158015611d1557600080fd5b505afa158015611d29573d6000803e3d6000fd5b505050506040513d601f19601f82011682018060405250810190611d4d91906127e3565b90508315611d6e57600b830154611d649082611ffc565b600b840155611d83565b600c830154611d7d9082611ffc565b600c8401555b815460ff60ff1990911685151517166101006001600160f81b038316021782556040516001600160a01b038716907f0c611e7b6ae0de26f4772260e1bbdb5f58cbb7c275fe2de14671968d29add8d690611de290889088908690613241565b60405180910390a2505050505050565b6001600160a01b03811660009081526005602052604090819020805460ff19166001179055517f52762435f58790076157ea2a4914a5a4d0aa0eb421588891377692f7fd3bc08290611c2d908390612be8565b600281905560405133907fc46fc23e244f0720a98ddbac6efb5bb40d212cf15e6478fc4b3017648715289d90611e7c908490612cad565b60405180910390a250565b60405163f6b5020360e01b81526000906001600160a01b0383169063f6b5020390611eb6904390600401612cad565b60206040518083038186803b158015611ece57600080fd5b505afa158015611ee2573d6000803e3d6000fd5b505050506040513d601f19601f82011682018060405250810190611f0691906127e3565b118015611f8f5750604051637a71f9d760e01b81526000906001600160a01b03831690637a71f9d790611f3d904390600401612cad565b60206040518083038186803b158015611f5557600080fd5b505afa158015611f69573d6000803e3d6000fd5b505050506040513d601f19601f82011682018060405250810190611f8d91906127e3565b115b611fab5760405162461bcd60e51b815260040161097390612ea5565b600180546001600160a01b0319166001600160a01b0383169081179091556040513391907f9e8e9f668db69a2cefb172dabe284d0d3aea2b7ee64212a205bd033bd03a3d5590600090a350565b4690565b600082820183811015612056576040805162461bcd60e51b815260206004820152601b60248201527f536166654d6174683a206164646974696f6e206f766572666c6f770000000000604482015290519081900360640190fd5b9392505050565b866001600160a01b031663b1fc879687878787878760405160200161208796959493929190612c15565b604051602081830303815290604052805190602001206040518263ffffffff1660e01b81526004016120b99190612cad565b60206040518083038186803b1580156120d157600080fd5b505afa1580156120e5573d6000803e3d6000fd5b505050506040513d601f19601f8201168201806040525081019061210991906127c7565b156121265760405162461bcd60e51b815260040161097390612df0565b604051638d8fe2e360e01b81526001600160a01b03881690638d8fe2e39061215c90899089908990899089908990600401612c15565b602060405180830381600087803b15801561217657600080fd5b505af115801561218a573d6000803e3d6000fd5b505050506040513d601f19601f820116820180604052508101906121ae91906127e3565b5050505050505050565b6040518061022001604052806000815260200160006001600160a01b0316815260200160006001600160a01b031681526020016060815260200160608152602001606081526020016060815260200160608152602001600081526020016000815260200160008152602001600081526020016000815260200160001515815260200160001515815260200160006001600160a01b03168152602001600080191681525090565b604080518082019091526000808252602082015290565b60405180606001604052806000815260200160008152602001600081525090565b8280548282559060005260206000209081019282156122eb579160200282015b828111156122eb57825182546001600160a01b0319166001600160a01b039091161782556020909201916001909101906122b6565b506122f7929150612484565b5090565b8280548282559060005260206000209081019282156122eb579160200282015b828111156122eb57825182559160200191906001019061231b565b828054828255906000526020600020908101928215612383579160200282015b828111156123835782518051612373918491602090910190612499565b5091602001919060010190612356565b506122f7929150612514565b8280548282559060005260206000209081019282156123dc579160200282015b828111156123dc57825180516123cc918491602090910190612499565b50916020019190600101906123af565b506122f7929150612531565b82805482825590600052602060002090601f016020900481019282156122eb5791602002820160005b8382111561244e57835183826101000a81548160ff0219169083151502179055509260200192600101602081600001049283019260010302612411565b801561247b5782816101000a81549060ff021916905560010160208160000104928301926001030261244e565b50506122f79291505b5b808211156122f75760008155600101612485565b828054600181600116156101000203166002900490600052602060002090601f0160209004810192826124cf57600085556122eb565b82601f106124e857805160ff19168380011785556122eb565b828001600101855582156122eb57918201828111156122eb57825182559160200191906001019061231b565b808211156122f7576000612528828261254e565b50600101612514565b808211156122f7576000612545828261254e565b50600101612531565b50805460018160011615610100020316600290046000825580601f106125745750610d50565b601f016020900490600052602060002090810190610d509190612484565b600082601f8301126125a2578081fd5b81356125b56125b082613289565b613265565b8181529150602080830190848101818402860182018710156125d657600080fd5b60005b848110156125fe5781356125ec81613305565b845292820192908201906001016125d9565b505050505092915050565b600082601f830112612619578081fd5b81356126276125b082613289565b81815291506020808301908481018184028601820187101561264857600080fd5b60005b848110156125fe57813561265e8161331a565b8452928201929082019060010161264b565b600082601f830112612680578081fd5b813561268e6125b082613289565b818152915060208083019084810160005b848110156125fe578135870188603f8201126126ba57600080fd5b838101356126ca6125b0826132a7565b81815260408b818486010111156126e057600080fd5b8281850188840137506000918101860191909152855250928201929082019060010161269f565b600082601f830112612717578081fd5b81356127256125b082613289565b81815291506020808301908481018184028601820187101561274657600080fd5b60005b848110156125fe57813584529282019290820190600101612749565b803561090581613305565b600060208284031215612781578081fd5b813561205681613305565b60006020828403121561279d578081fd5b813567ffffffffffffffff8111156127b3578182fd5b6127bf84828501612592565b949350505050565b6000602082840312156127d8578081fd5b81516120568161331a565b6000602082840312156127f4578081fd5b5051919050565b60006020828403121561280c578081fd5b815167ffffffffffffffff811115612822578182fd5b8201601f81018413612832578182fd5b80516128406125b0826132a7565b818152856020838501011115612854578384fd5b6128658260208301602086016132d5565b95945050505050565b600080600080600080600060e0888a031215612888578283fd5b61289188612765565b9650602088013567ffffffffffffffff808211156128ad578485fd5b6128b98b838c01612592565b975060408a01359150808211156128ce578485fd5b6128da8b838c01612707565b965060608a01359150808211156128ef578485fd5b6128fb8b838c01612670565b955060808a0135915080821115612910578485fd5b61291c8b838c01612670565b945060a08a0135915080821115612931578384fd5b5061293e8a828b01612609565b92505060c0880135905092959891949750929550565b600060208284031215612965578081fd5b5035919050565b6000806040838503121561297e578182fd5b82359150602083013561299081613305565b809150509250929050565b600080604083850312156129ad578182fd5b8235915060208301356129908161331a565b600080600080600060a086880312156129d6578283fd5b8535945060208601356129e88161331a565b9350604086013560ff811681146129fd578384fd5b94979396509394606081013594506080013592915050565b6001600160a01b03169052565b6000815180845260208085019450808401835b83811015612a5a5781516001600160a01b031687529582019590820190600101612a35565b509495945050505050565b6000815180845260208085019450808401835b83811015612a5a578151151587529582019590820190600101612a78565b6000815180845260208085018081965082840281019150828601855b85811015612adc578284038952612aca848351612b1e565b98850198935090840190600101612ab2565b5091979650505050505050565b6000815180845260208085019450808401835b83811015612a5a57815187529582019590820190600101612afc565b15159052565b60008151808452612b368160208601602086016132d5565b601f01601f19169290920160200192915050565b60008154600180821660008114612b685760018114612b8657612bc4565b60028304607f16865260ff1983166020870152604086019350612bc4565b60028304808752612b96866132c9565b60005b82811015612bba5781546020828b0101528482019150602081019050612b99565b8801602001955050505b50505092915050565b61190160f01b81526002810192909252602282015260420190565b6001600160a01b0391909116815260200190565b6001600160a01b03929092168252602082015260400190565b600060018060a01b038816825286602083015260c06040830152612c3c60c0830187612b1e565b8281036060840152612c4e8187612b1e565b6080840195909552505090151560a090910152949350505050565b600060018060a01b038816825286602083015260c06040830152612c9060c0830187612b4a565b8281036060840152612c4e8187612b4a565b901515815260200190565b90815260200190565b938452602084019290925260408301526001600160a01b0316606082015260800190565b92835260208301919091521515604082015260600190565b93845260ff9290921660208401526040830152606082015260800190565b6001600160a01b039384168152919092166020820152604081019190915260600190565b6020810160088310612d4257fe5b91905290565b6000602082526120566020830184612b1e565b6020808252601c908201527f50524f504f534954494f4e5f4352454154494f4e5f494e56414c494400000000604082015260600190565b6020808252600d908201526c1593d5125391d7d0d313d4d151609a1b604082015260600190565b60208082526017908201527f494e56414c49445f53544154455f464f525f5155455545000000000000000000604082015260600190565b602080825260119082015270222aa82624a1a0aa22a22fa0a1aa24a7a760791b604082015260600190565b602080825260159082015274494e56414c49445f454d5054595f5441524745545360581b604082015260600190565b602080825260119082015270494e56414c49445f5349474e415455524560781b604082015260600190565b6020808252601690820152751593d51157d053149150511657d4d55093525515115160521b604082015260600190565b60208082526010908201526f494e56414c49445f535452415445475960801b604082015260600190565b60208082526017908201527f4558454355544f525f4e4f545f415554484f52495a4544000000000000000000604082015260600190565b60208082526010908201526f27a7262cafa12cafa3aaa0a92224a0a760811b604082015260600190565b6020808252601a908201527f494e434f4e53495354454e545f504152414d535f4c454e475448000000000000604082015260600190565b6020808252818101527f50524f504f534954494f4e5f43414e43454c4c4154494f4e5f494e56414c4944604082015260600190565b60208082526014908201527313d3931657d0915193d49157d1561150d555115160621b604082015260600190565b6020808252601390820152721253959053125117d41493d413d4d05317d251606a1b604082015260600190565b6020808252601590820152744f4e4c595f5155455545445f50524f504f53414c5360581b604082015260600190565b6000602082528251602083015260208301516130456040840182612a15565b5060408301516130586060840182612a15565b506060830151610220806080850152613075610240850183612a22565b91506080850151601f19808685030160a08701526130938483612ae9565b935060a08701519150808685030160c08701526130b08483612a96565b935060c08701519150808685030160e08701526130cd8483612a96565b935060e087015191506101008187860301818801526130ec8584612a65565b90880151610120888101919091528801516101408089019190915288015161016080890191909152880151610180808901919091528801516101a08089019190915288015190945091506101c0905061314781870183612b18565b86015190506101e061315b86820183612b18565b860151905061020061316f86820183612a15565b959095015193019290925250919050565b8151151581526020918201516001600160f81b03169181019190915260400190565b60006101408c83528060208401526131bc8184018d612a22565b905082810360408401526131d0818c612ae9565b905082810360608401526131e4818b612a96565b905082810360808401526131f8818a612a96565b905082810360a084015261320c8189612a65565b60c0840197909752505060e08101939093526001600160a01b0391909116610100830152610120909101529695505050505050565b9283529015156020830152604082015260600190565b918252602082015260400190565b60405181810167ffffffffffffffff8111828210171561328157fe5b604052919050565b600067ffffffffffffffff82111561329d57fe5b5060209081020190565b600067ffffffffffffffff8211156132bb57fe5b50601f01601f191660200190565b60009081526020902090565b60005b838110156132f05781810151838201526020016132d8565b838111156132ff576000848401525b50505050565b6001600160a01b0381168114610d5057600080fd5b8015158114610d5057600080fdfe4f776e61626c653a206e6577206f776e657220697320746865207a65726f20616464726573734f776e61626c653a2063616c6c6572206973206e6f7420746865206f776e6572a2646970667358221220bff3a98acad803d415a393f5a2d9e1d0958e51dd4f4549ce5ae3e639899144ed64736f6c63430007050033",
  "linkReferences": {},
  "deployedLinkReferences": {}
}